{
  "contractName": "SimpleStorage",
  "abi": [
    {
      "constant": true,
      "inputs": [
        {
          "internalType": "uint256",
          "name": "",
          "type": "uint256"
        }
      ],
      "name": "projects",
      "outputs": [
        {
          "internalType": "string",
          "name": "name",
          "type": "string"
        },
        {
          "internalType": "string",
          "name": "desc",
          "type": "string"
        },
        {
          "internalType": "uint256",
          "name": "targetMoney",
          "type": "uint256"
        }
      ],
      "payable": false,
      "stateMutability": "view",
      "type": "function"
    },
    {
      "constant": false,
      "inputs": [
        {
          "internalType": "uint256",
          "name": "x",
          "type": "uint256"
        }
      ],
      "name": "set",
      "outputs": [],
      "payable": false,
      "stateMutability": "nonpayable",
      "type": "function"
    },
    {
      "constant": true,
      "inputs": [],
      "name": "get",
      "outputs": [
        {
          "internalType": "uint256",
          "name": "",
          "type": "uint256"
        }
      ],
      "payable": false,
      "stateMutability": "view",
      "type": "function"
    },
    {
      "constant": false,
      "inputs": [
        {
          "internalType": "string",
          "name": "_name",
          "type": "string"
        },
        {
          "internalType": "string",
          "name": "_desc",
          "type": "string"
        },
        {
          "internalType": "uint256",
          "name": "_targetMoney",
          "type": "uint256"
        }
      ],
      "name": "addProject",
      "outputs": [],
      "payable": false,
      "stateMutability": "nonpayable",
      "type": "function"
    },
    {
      "constant": false,
      "inputs": [],
      "name": "getProjectLength",
      "outputs": [
        {
          "internalType": "uint256",
          "name": "",
          "type": "uint256"
        }
      ],
      "payable": false,
      "stateMutability": "nonpayable",
      "type": "function"
    }
  ],
  "bytecode": "0x608060405234801561001057600080fd5b50610631806100206000396000f3fe608060405234801561001057600080fd5b50600436106100575760003560e01c80630e539a461461005c578063107046bd1461007a5780635fd4f7581461019457806360fe47b1146102f05780636d4ce63c1461031e575b600080fd5b61006461033c565b6040518082815260200191505060405180910390f35b6100a66004803603602081101561009057600080fd5b8101908080359060200190929190505050610349565b604051808060200180602001848152602001838103835286818151815260200191508051906020019080838360005b838110156100f05780820151818401526020810190506100d5565b50505050905090810190601f16801561011d5780820380516001836020036101000a031916815260200191505b50838103825285818151815260200191508051906020019080838360005b8381101561015657808201518184015260208101905061013b565b50505050905090810190601f1680156101835780820380516001836020036101000a031916815260200191505b509550505050505060405180910390f35b6102ee600480360360608110156101aa57600080fd5b81019080803590602001906401000000008111156101c757600080fd5b8201836020820111156101d957600080fd5b803590602001918460018302840111640100000000831117156101fb57600080fd5b91908080601f016020809104026020016040519081016040528093929190818152602001838380828437600081840152601f19601f8201169050808301925050505050505091929192908035906020019064010000000081111561025e57600080fd5b82018360208201111561027057600080fd5b8035906020019184600183028401116401000000008311171561029257600080fd5b91908080601f016020809104026020016040519081016040528093929190818152602001838380828437600081840152601f19601f820116905080830192505050505050509192919290803590602001909291905050506104b0565b005b61031c6004803603602081101561030657600080fd5b8101908080359060200190929190505050610544565b005b61032661054e565b6040518082815260200191505060405180910390f35b6000600180549050905090565b6001818154811061035657fe5b9060005260206000209060030201600091509050806000018054600181600116156101000203166002900480601f0160208091040260200160405190810160405280929190818152602001828054600181600116156101000203166002900480156104025780601f106103d757610100808354040283529160200191610402565b820191906000526020600020905b8154815290600101906020018083116103e557829003601f168201915b505050505090806001018054600181600116156101000203166002900480601f0160208091040260200160405190810160405280929190818152602001828054600181600116156101000203166002900480156104a05780601f10610475576101008083540402835291602001916104a0565b820191906000526020600020905b81548152906001019060200180831161048357829003601f168201915b5050505050908060020154905083565b6001604051806060016040528085815260200184815260200183815250908060018154018082558091505090600182039060005260206000209060030201600090919290919091506000820151816000019080519060200190610514929190610557565b506020820151816001019080519060200190610531929190610557565b5060408201518160020155505050505050565b8060008190555050565b60008054905090565b828054600181600116156101000203166002900490600052602060002090601f016020900481019282601f1061059857805160ff19168380011785556105c6565b828001600101855582156105c6579182015b828111156105c55782518255916020019190600101906105aa565b5b5090506105d391906105d7565b5090565b6105f991905b808211156105f55760008160009055506001016105dd565b5090565b9056fea265627a7a7231582049d9dec5861c8af62d586892ea1f585551b24ce20b777821417b322bf92cc68b64736f6c63430005100032",
  "source": "// SPDX-License-Identifier: MIT\npragma solidity >=0.4.21 <0.7.0;\n\ncontract SimpleStorage {\n    uint256 storedData;\n\n    struct Project {\n        string name;\n        string desc;\n        uint256 targetMoney;\n    }\n\n    Project[] public projects;\n\n    function set(uint256 x) public {\n        storedData = x;\n    }\n\n    function get() public view returns (uint256) {\n        return storedData;\n    }\n\n    function addProject(\n        string memory _name,\n        string memory _desc,\n        uint256 _targetMoney\n    ) public {\n        projects.push(Project(_name, _desc, _targetMoney));\n    }\n\n    function getProjectLength() public returns (uint256) {\n        return projects.length;\n    }\n}",
  "sourcePath": "C:\\Users\\dsh04\\react\\contracts\\SimpleStorage.sol",
  "compiler": {
    "name": "solc",
    "version": "0.5.16+commit.9c3226ce.Emscripten.clang"
  },
  "schemaVersion": "3.4.3",
  "updatedAt": "2021-09-24T07:23:18.261Z",
  "networkType": "ethereum",
  "devdoc": {
    "methods": {}
  },
  "userdoc": {
    "methods": {}
  }
}